:020000040000FA
:04000000E2EF1FF01C
:10080000002A2A2A535553435249424554452A2A1D
:100810002A002A2A2A454C454354524F4E49434107
:100820002A2A002A504943202D2041524455494E3E
:100830004F2A2A002A2A2A2A2A2A5843382A2A2AC8
:100840002A2A2A002A2A494445204D504C41422058
:10085000582A2A0020202050494320313846343578
:10086000353000466C6F61743A202530332E326685
:10087000002020204A6F7267652041504300496E76
:10088000743A20256400494E46004E414E00696E80
:1008900066006E616E006C660000000E00017B6FEA
:1008A000000E7A6F30C08CF031C08DF032C08EF007
:1008B00033C08FF08FBF61EF04F05FEF04F077EF8C
:1008C00004F0000E7B6F010E7A6F8CC001F08DC0BA
:1008D00002F08EC003F08FC004F03FEC20F001C0A6
:1008E0008CF002C08DF003C08EF004C08FF0000EBB
:1008F0000001936F000E926FC2C07EF0C3C07FF004
:100900007A517B11D8A487EF04F089EF04F090EFBF
:1009100004F0C6A58EEF04F090EF04F0AAEF04F007
:100920007A517B11D8A497EF04F099EF04F09FEF70
:1009300004F0000E616F2B0E606FA3EF04F0000E49
:10094000616F2D0E606F60C000F1924B932B7E079C
:10095000D8A07F078CC001F08DC002F08EC003F0DC
:100960008FC004F024EC1BF001040210D8A4BBEFEC
:1009700004F0BDEF04F014EF05F0BF0E356EFF0E6E
:10098000366E3450376E386A355037263650382236
:1009900038500AE11A0E375CD8A0D1EF04F0D4EF3A
:1009A00004F0010ED5EF04F0000E0001626F636BDE
:1009B00062516311D8B4DFEF04F0E1EF04F0EFEF20
:1009C00004F0000E9225016E010E9321026E860E38
:1009D000036E080E046EF0EC1EF0FBEF04F0000E48
:1009E0009225016E010E9321026E8E0E036E080E8B
:1009F000046EF0EC1EF00001FD0E7E27FF0E7F233B
:100A00002EC011F02FC012F0000E136E010E146EE6
:100A10007EC015F07FC016F073EC1CF011C02EF0F4
:100A200012C02FF078EF0AF08CC001F08DC002F0F8
:100A30008EC003F08FC004F024EC1BF001500210B4
:100A4000D8A425EF05F027EF05F067EF05F0BF0EFE
:100A5000356EFF0E366E3450376E386A3550372695
:100A60003650382238500AE11A0E375CD8A03BEFD6
:100A700005F03EEF05F0010E3FEF05F0000E00011E
:100A8000646F656B64516511D8B449EF05F04BEFA5
:100A900005F059EF05F0000E9225016E010E93212D
:100AA000026E8A0E036E080E046EF0EC1EF0FBEF71
:100AB00004F0000E9225016E010E9321026E920E3B
:100AC000036E080E046EF0EC1EF0FBEF04F0000E57
:100AD0000001946F000E956F800E966F3F0E976F1A
:100AE000000E916F000E906F8CC001F08DC002F06F
:100AF0008EC003F08FC004F0000E056E000E066E6F
:100B0000000E076E000E086E90EC1DF0D8B08BEF53
:100B100005F08DEF05F010EF06F0ACEF05F094C096
:100B200001F095C002F096C003F097C004F0000EEB
:100B3000056E000E066E200E076E410E086E4EEC1E
:100B400010F001C094F002C095F003C096F004C00C
:100B500097F00001904B912B8CC01AF08DC01BF0C8
:100B60008EC01CF08FC01DF0000E056E000E066ECC
:100B7000200E076E410E086E94C001F095C002F081
:100B800096C003F097C004F04EEC10F001C01EF0C8
:100B900002C01FF003C020F004C021F0A2EC1AF044
:100BA000D8B0D5EF05F0D7EF05F08FEF05F0F7EFF0
:100BB00005F094C001F095C002F096C003F097C014
:100BC00004F0000E056E000E066E200E076E410E3C
:100BD000086E63EC12F001C094F002C095F003C0FF
:100BE00096F004C097F000019007D8A091078CC040
:100BF0001AF08DC01BF08EC01CF08FC01DF094C089
:100C00001EF095C01FF096C020F097C021F0A2EC16
:100C10001AF0D8A00EEF06F010EF06F0D9EF05F0AD
:100C200034C007F0086AC0EC1EF007500001816F65
:100C300081C080F0670E8119D8A421EF06F023EF60
:100C400006F049EF06F0C451C511D8A42AEF06F00A
:100C50002CEF06F030EF06F0000EC56F010EC46FEA
:100C6000C5BF3DEF06F0C55106E1C405D8B03BEF66
:100C700006F03DEF06F043EF06F0000E7D6F060E26
:100C80007C6F52EF06F0C4C07CF0C5C07DF052EF1F
:100C900006F0C5BF4EEF06F050EF06F03DEF06F050
:100CA00043EF06F0670E8119D8A459EF06F05BEF09
:100CB00006F08AEF06F091AF69EF06F0FC0E905D4A
:100CC000FF0E9159D8A067EF06F069EF06F088EFA4
:100CD00006F0FF0E356EFF0E366E7CC037F07DC01D
:100CE00038F035503726365038229051375C38501E
:100CF000800A396E9151800A3958D8A082EF06F0E7
:100D000084EF06F088EF06F0660E806F8AEF06F03B
:100D1000650E806F7CC072F07DC073F0670E811924
:100D2000D8A495EF06F097EF06F0A7EF06F0660E51
:100D30008019D8A49EEF06F0A0EF06F0A9EF06F008
:100D400091BFA7EF06F0A5EF06F0A9EF06F0724BF2
:100D5000732B660E8019D8A4B0EF06F0B2EF06F040
:100D6000D2EF06F091BFB9EF06F0B7EF06F0C5EF8E
:100D700006F0000E946F000E956F800E966F3F0E7A
:100D8000976F000E916F000E906F670E8119D8B4A7
:100D9000CCEF06F0CEEF06F0D2EF06F090517227BE
:100DA00091517323000E8B6F000E8A6F8CC082F0FE
:100DB0008DC083F08EC084F08FC085F094C074F035
:100DC00095C075F096C076F097C077F063EF07F0A6
:100DD00082C001F083C002F084C003F085C004F03B
:100DE00094C005F095C006F096C007F097C008F0D3
:100DF00063EC12F001C01AF002C01BF003C01CF03B
:100E000004C01DF0D8EC16F01AC086F01BC087F0A5
:100E10001CC088F01DC089F086C001F087C002F0B8
:100E200088C003F089C004F01FEC1AF001C078F00C
:100E300002C079F082C01AF083C01BF084C01CF09D
:100E400085C01DF094C005F095C006F096C007F06F
:100E500097C008F086C001F087C002F088C003F098
:100E600089C004F04EEC10F001C01EF002C01FF06B
:100E700003C020F004C021F09DEC1FF01AC082F0E6
:100E80001BC083F01CC084F01DC085F094C001F02D
:100E900095C002F096C003F097C004F0000E056EF6
:100EA000000E066E200E076E410E086E63EC12F007
:100EB00001C094F002C095F003C096F004C097F012
:100EC00000018A4B8B2B72518A5D8B51800A356EE3
:100ED0007351800A3558D8A070EF07F072EF07F011
:100EE000E8EF06F094C001F095C002F096C003F060
:100EF00097C004F0000E056E000E066EA00E076E81
:100F0000400E086E4EEC10F001C086F002C087F073
:100F100003C088F004C089F082C01AF083C01BF0BF
:100F200084C01CF085C01DF086C01EF087C01FF075
:100F300088C020F089C021F0A2EC1AF0D8B0A3EF4D
:100F400007F0A5EF07F0B0EF07F0000E0001866F85
:100F5000000E876F000E886F000E896FD9EF07F0C3
:100F600082C001F083C002F084C003F085C004F0A9
:100F700086C005F087C006F088C007F089C008F079
:100F800090EC1DF0D8A0C7EF07F0C9EF07F0D9EF3C
:100F900007F0000178B1CFEF07F0D1EF07F0D9EFFC
:100FA00007F0000E866F000E876F000E886F000E30
:100FB000896F8CC001F08DC002F08EC003F08FC02D
:100FC00004F086C005F087C006F088C007F089C02D
:100FD00008F0EEEC0DF001C082F002C083F003C017
:100FE00084F004C085F082C01AF083C01BF084C076
:100FF0001CF085C01DF0000E056E000E066E200E62
:10100000076E410E086E74C001F075C002F076C024
:1010100003F077C004F04EEC10F001C01EF002C0E7
:101020001FF003C020F004C021F0A2EC1AF0D8A0F9
:101030001CEF08F01EEF08F047EF08F00001904B9E
:10104000912B74C001F075C002F076C003F077C038
:1010500004F0000E056E000E066E200E076E410EA7
:10106000086E4EEC10F001C074F002C075F003C0C1
:1010700076F004C077F0660E00018019D8A443EF23
:1010800008F045EF08F047EF08F0724B732B74C07F
:1010900094F075C095F076C096F077C097F0650E25
:1010A00000018019D8B457EF08F059EF08F05FEF4E
:1010B00008F090C070F091C071F063EF08F0000E7E
:1010C000716F000E706F000E6F6F000E6E6F000E6E
:1010D0006D6F000E6C6F000E8B6F000E8A6F5EEFEF
:1010E00009F082C001F083C002F084C003F085C023
:1010F00004F094C005F095C006F096C007F097C0C4
:1011000008F063EC12F001C01AF002C01BF003C03B
:101110001CF004C01DF0D8EC16F01AC086F01BC0FD
:1011200087F01CC088F01DC089F086C001F087C020
:1011300002F088C003F089C004F01FEC1AF001C06F
:1011400078F002C079F00001C6B9A9EF08F0ABEF62
:1011500008F0C8EF08F078517911D8A4B2EF08F080
:10116000B4EF08F0C8EF08F0670E8119D8A4BBEF00
:1011700008F0BDEF08F0C8EF08F071BFC4EF08F049
:10118000C2EF08F0C8EF08F06C4B6D2B12EF09F0BE
:101190006E516F11D8A4CFEF08F0D1EF08F0FBEF3C
:1011A00008F071BFD8EF08F0D6EF08F0FBEF08F0B9
:1011B000000E9225D96E010E9321DA6E2E0EDF6E8F
:1011C000924B932B7E07D8A07F07000E6F6F010E06
:1011D0006E6FFBEF08F0000E9225D96E010E932181
:1011E000DA6E300EDF6E924B932B7E07D8A07F070E
:1011F0006C07D8A06D076C516D11D8A402EF09F0EF
:1012000004EF09F0EBEF08F0000E9225D96E010E05
:101210009321DA6E7851300FDF6E924B932B7E075D
:10122000D8A07F0782C01AF083C01BF084C01CF0D6
:1012300085C01DF094C005F095C006F096C007F07B
:1012400097C008F086C001F087C002F088C003F0A4
:1012500089C004F04EEC10F001C01EF002C01FF077
:1012600003C020F004C021F09DEC1FF01AC082F0F2
:101270001BC083F01CC084F01DC085F094C001F039
:1012800095C002F096C003F097C004F0000E056E02
:10129000000E066E200E076E410E086E63EC12F013
:1012A00001C094F002C095F003C096F004C097F01E
:1012B00000017007D8A071078A4B8B2B72518A5D91
:1012C0008B51800A356E7351800A3558D8B06BEF58
:1012D00009F06DEF09F07BEF09F093BF79EF09F0AA
:1012E000935109E14B0E925DD8A079EF09F07BEFA5
:1012F00009F071EF08F06E516F11D8A482EF09F078
:1013000084EF09F095EF09F0C6A989EF09F08BEF9A
:1013100009F095EF09F0000E9225D96E010E932188
:10132000DA6E2E0EDF6E924B932B000E9225D96E45
:10133000010E9321DA6E000EDF6E650E8019D8A4BF
:10134000A4EF09F0A6EF09F000EF05F0000E8B6F97
:101350004F0E8A6F000E8A25D96E010E8B21DA6E30
:10136000000EDF6E000E7B6F000E7A6F91BFBDEF37
:1013700009F0BBEF09F0C5EF09F0000E7B6F010E1D
:101380007A6F906D911FD8B0912B000E7D6F020E79
:101390007C6FF6EF09F08A07D8A08B07000E8A252C
:1013A000D96E010E8B21DA6E90C001F091C002F06F
:1013B000000E046E0A0E036E38EC1DF00150300F63
:1013C000DF6E90C001F091C002F0000E046E0A0EB4
:1013D000036ED6EC1CF001C090F002C091F0000149
:1013E0007C07D8A07D077E07D8A07F079051911178
:1013F000D8A4FDEF09F0FFEF09F0CBEF09F07DBFB6
:101400000CEF0AF07D5106E17C05D8B00AEF0AF036
:101410000CEF0AF0CBEF09F08A07D8A08B077A51BE
:101420007B11D8A416EF0AF018EF0AF01EEF0AF0AD
:10143000000E676F2B0E666F22EF0AF0000E676FCB
:101440002D0E666F000E8A25D96E010E8B21DA6E85
:1014500066C0DFFF7E07D8A07F078A07D8A08B076A
:10146000BF0E356EFF0E366E3450376E386A35500B
:1014700037263650382238500AE11A0E375CD8A089
:1014800044EF0AF047EF0AF0010E48EF0AF0000EB1
:101490006A6F6B6B6A516B11D8A451EF0AF053EF6E
:1014A0000AF059EF0AF0000E696F650E686F5DEF84
:1014B0000AF0000E696F450E686F000E8A25D96E1E
:1014C000010E8B21DA6E68C0DFFF7E07D8A07F0790
:1014D000000E9225016E010E9321026E000E8A25E8
:1014E000036E010E8B21046EF0EC1EF000EF05F090
:1014F000120042C0D9FF43C0DAFFDECFF6FFDDCFD6
:10150000F7FF0800F550250AD8A489EF0AF08BEF01
:101510000AF0D2EF0DF042C0D9FF43C0DAFFDE2A55
:10152000000EDD22000E0001C36F000EC26FC2C0AC
:10153000C6F0C3C0C7F0C469C569000EA16F000E34
:10154000A06FE9EF0AF0C68142C0D9FF43C0DAFFBD
:10155000DE2A000EDD22E9EF0AF0C683A4EF0AF0CE
:10156000C685A4EF0AF0C687A4EF0AF0C689A4EFE7
:101570000AF0000EA16F010EA06FE9EF0AF042C061
:10158000D9FF43C0DAFFDECFF6FFDDCFF7FF08005B
:10159000F550466E476A4750000AD8B4D2EF0AF0B9
:1015A000B9EF0AF04650200AD8B4B3EF0AF0030AA4
:1015B000D8B4B6EF0AF0080AD8B4B0EF0AF0060AB9
:1015C000D8B4A3EF0AF01D0AD8B4ADEF0AF0B9EF12
:1015D0000AF0A051A111D8B4F0EF0AF0F2EF0AF02E
:1015E000BFEF0AF0C6A1F7EF0AF0F9EF0AF0FAEF41
:1015F0000AF0C69342C0D9FF43C0DAFFDECFF6FF40
:10160000DDCFF7FF0800F5502A0AD8A40AEF0BF047
:101610000CEF0BF035EF0BF042C0D9FF43C0DAFFFF
:10162000DE2A000EDD2244C0D9FF45C0DAFFDFCF3D
:1016300046F0020EDE26DFCF47F0000EDD2246C068
:10164000D9FF47C0DAFFDECFC2F0DDCFC3F0C3BFA2
:101650002EEF0BF02CEF0BF079EF0BF0C681C26D83
:10166000C31FD8B0C32B79EF0BF042C0D9FF43C0E2
:10167000DAFFDECF08F0DDCF09F0E1EC17F008C0AB
:10168000C2F009C0C3F04CEF0BF042C0D9FF43C019
:10169000DAFFDE2A000EDD22D00E466EFF0E476E08
:1016A00042C0D9FF43C0DAFFDECFF6FFDDCFF7FF40
:1016B0000800F550486E496A46504826475049226E
:1016C00049500AE10A0E485CD8A069EF0BF06CEFB4
:1016D0000BF0010E6DEF0BF0000E0001A26FA36B7B
:1016E000A251A311D8A477EF0BF079EF0BF045EFDF
:1016F0000BF042C0D9FF43C0DAFFDECFF6FFDDCFEB
:10170000F7FF0800F5502E0AD8A489EF0BF08BEFF5
:101710000BF009EF0CF0000EC56F000EC46F42C055
:10172000D9FF43C0DAFFDE2A000EDD2242C0D9FF16
:1017300043C0DAFFDECFF6FFDDCFF7FF0800F5503C
:101740002A0AD8A4A6EF0BF0A8EF0BF0C5EF0BF018
:1017500042C0D9FF43C0DAFFDE2A000EDD2244C0BA
:10176000D9FF45C0DAFFDFCF46F0020EDE26DFCF1D
:1017700047F0000EDD2246C0D9FF47C0DAFFDECFBA
:10178000C4F0DDCFC5F009EF0CF042C0D9FF43C073
:10179000DAFFDECF08F0DDCF09F0E1EC17F008C08A
:1017A000C4F009C0C5F0DCEF0BF042C0D9FF43C064
:1017B000DAFFDE2A000EDD22D00E466EFF0E476EE7
:1017C00042C0D9FF43C0DAFFDECFF6FFDDCFF7FF1F
:1017D0000800F550486E496A46504826475049224D
:1017E00049500AE10A0E485CD8A0F9EF0BF0FCEF73
:1017F0000BF0010EFDEF0BF0000E0001A46FA56BC6
:10180000A451A511D8A407EF0CF009EF0CF0D5EF07
:101810000BF042C0D9FF43C0DAFFDECFF6FFDDCFC9
:10182000F7FF0800F550076E086AC0EC1EF007507D
:101830000001AC6FAC51D8B420EF0CF022EF0CF0EB
:101840005CEF0CF042C0D9FF43C0DAFFDECF46F0B8
:10185000DDCF47F0010E4626000E472246C0F6FFB8
:1018600047C0F7FF0800F550076E086AC0EC1EF08D
:1018700007500001AD6FAD51D8B441EF0CF043EF0C
:101880000CF05CEF0CF042C0D9FF43C0DAFFDECFB2
:1018900046F0DDCF47F0020E4626000E472246C036
:1018A000F6FF47C0F7FF0800F550076E086AC0EC66
:1018B0001EF007500001AE6F42C0D9FF43C0DAFFEF
:1018C000DECFF6FFDDCFF7FF0800F550640AD8B48D
:1018D0006CEF0CF06EEF0CF080EF0CF042C0D9FF13
:1018E00043C0DAFFDECFF6FFDDCFF7FF0800F5508B
:1018F000690AD8A47EEF0CF080EF0CF0C0EF0CF07A
:1019000042C0D9FF43C0DAFFDE2A000EDD2244C008
:10191000D9FF45C0DAFFDFCF46F0020EDE26DFCF6B
:1019200047F0000EDD2246C0D9FF47C0DAFFDECF08
:1019300098F0DDCF99F0000E99BFFF0E9A6F9B6F64
:101940009C6F9D6F9E6F9F6F40C01CF041C01DF04B
:1019500098C01EF099C01FF09AC020F09BC021F0E3
:101960009CC022F09DC023F09EC024F09FC025F0B3
:1019700030EC14F01CC040F01DC041F0EDEF0DF054
:10198000660EAC19D8A4C7EF0CF0C9EF0CF009EF44
:101990000DF042C0D9FF43C0DAFFDECFF6FFDDCF46
:1019A000F7FF0800F5CFAFF042C0D9FF43C0DAFF20
:1019B000DE2A000EDD2244C0D9FF45C0DAFFDFCFAA
:1019C00046F0040EDE26DFCF47F0000EDD2246C0D3
:1019D000D9FF47C0DAFFDECFA8F0DECFA9F0DECF17
:1019E000AAF0DECFABF040C02EF041C02FF0A8C06F
:1019F00030F0A9C031F0AAC032F0ABC033F0AFC0B4
:101A000034F04DEC04F02EC040F02FC041F0EDEF6B
:101A10000DF0AC0E016E000E026E960E036E080EF7
:101A2000046E000E066E020E056EA3EC1BF0015054
:101A30000210D8A41EEF0DF020EF0DF09CEF0DF07A
:101A400042C0D9FF43C0DAFFDECF46F0DDCF47F01A
:101A5000010E4626000E472246C0F6FF47C0F7FF9C
:101A60000800F5CFAFF0BF0E466EFF0E476E42C0C6
:101A7000D9FF43C0DAFFDECFF6FFDDCFF7FF080066
:101A8000F550486E496A4650482647504922495009
:101A90000AE11A0E485CD8A050EF0DF053EF0DF09C
:101AA000010E54EF0DF0000E0001A66FA76BA651BA
:101AB000A711D8B45EEF0DF060EF0DF07AEF0DF0E6
:101AC00044C0D9FF45C0DAFFDFCF46F0040EDE2662
:101AD000DFCF47F0000EDD2246C0D9FF47C0DAFF56
:101AE000DECFA8F0DECFA9F0DECFAAF0DECFABF0DC
:101AF00092EF0DF044C0D9FF45C0DAFFDFCF46F0CA
:101B0000040EDE26DFCF47F0000EDD2246C0D9FFEF
:101B100047C0DAFFDECFA8F0DECFA9F0DECFAAF013
:101B2000DECFABF0020E42C0D9FF43C0DAFFDE26A3
:101B3000000EDD22F3EF0CF042C0D9FF43C0DAFF04
:101B4000DECFF6FFDDCFF7FF0800F550250AD8A459
:101B5000ACEF0DF0AEEF0DF0C5EF0DF042C0D9FFC8
:101B600043C0DAFFDE2A000EDD22000E026E250ED3
:101B7000016E40C003F041C004F00EEC1CF0000EFA
:101B8000416E010E406EEDEF0DF042C0D9FF43C033
:101B9000DAFFDE2A000EDD22000E416E000E406EDE
:101BA000EDEF0DF042C0D9FF43C0DAFFDECFF6FF04
:101BB000DDCFF7FF0800F550016E026A40C003F068
:101BC00041C004F00EEC1CF042C0D9FF43C0DAFF64
:101BD000DE2A000EDD22BFEF0DF012000450800B54
:101BE0000D6E045004240F6E03AEF9EF0DF0FBEF01
:101BF0000DF0FCEF0DF00F800F50D8B402EF0EF097
:101C000004EF0EF019EF0EF00F28D8A40AEF0EF033
:101C10000CEF0EF014EF0EF0000E016E000E026ECF
:101C2000000E036E000E046E038E000E046E21EF94
:101C30000EF0000E016E000E026E000E036E000E1E
:101C4000046E0850800B0E6E0D500E18D8B42BEF9A
:101C50000EF02DEF0EF02EEF0EF00D8C0850082434
:101C60000E6E07AE36EF0EF038EF0EF039EF0EF0D5
:101C70000E800E50D8B43FEF0EF041EF0EF056EF4D
:101C80000EF00E28D8A447EF0EF049EF0EF051EFFA
:101C90000EF0000E056E000E066E000E076E000EB2
:101CA000086E078E000E086E5EEF0EF0000E056ED9
:101CB000000E066E000E076E000E086E0F500E5CD2
:101CC000D8B065EF0EF067EF0EF08EEF0EF00DACB2
:101CD0006CEF0EF06EEF0EF070EF0EF0800E0D1A3E
:101CE0000FC010F00EC00FF010C00EF001C010F0C9
:101CF00005C001F010C005F002C010F006C002F0EF
:101D000010C006F003C010F007C003F010C007F0C9
:101D100004C010F008C004F010C008F0000E106EEF
:101D20000F500EC009F00A6A095E000E0A5A0ABE78
:101D3000A3EF0EF00A5009E11A0E095CD8A0A3EF38
:101D40000EF0A5EF0EF0DCEF0EF0015002100310C4
:101D50000410D8A4AEEF0EF0B1EF0EF0010EB2EF0A
:101D60000EF0000E106E000E016E000E026E000EE0
:101D7000036E000E046E0EC00FF0E5EF0EF010A023
:101D8000C4EF0EF0C6EF0EF0CCEF0EF0D89010308E
:101D90000109106ECEEF0EF0D890103201A0D3EFF3
:101DA0000EF0D5EF0EF0D6EF0EF0108E04340432A4
:101DB0000332023201320F2A0E500F5CD8A0E3EF3B
:101DC0000EF0E5EF0EF0BFEF0EF00DBCEAEF0EF0F7
:101DD000ECEF0EF02CEF0FF00F50D8A4F2EF0EF056
:101DE000F4EF0EF0FEEF0EF0000E016E000E026E2C
:101DF000000E036E000E046E4DEF10F0055001262C
:101E000006500222075003220850042204A00BEFC0
:101E10000FF00DEF0FF0B9EF0FF010A012EF0FF071
:101E200014EF0FF01AEF0FF0D89010300109106E78
:101E30001CEF0FF0D890103201A021EF0FF023EF2C
:101E40000FF024EF0FF0108E04340432033202320C
:101E500001320F2AB9EF0FF00550015C065002580D
:101E6000075003580450800A096E0850800A095828
:101E7000D8B03DEF0FF03FEF0FF06AEF0FF00150D9
:101E8000055C096E025006580A6E035007580B6E27
:101E9000045008580C6EFF0E0924016EFF0E0A2034
:101EA000026EFF0E0B20036EFF0E0C20046E800EE0
:101EB0000D1A106C1050D8A460EF0FF062EF0FF005
:101EC00072EF0FF0010E0126000E022203220422FF
:101ED00072EF0FF00550015E0650025A0750035A88
:101EE0000850045A0150021003100410D8A47BEFCC
:101EF0000FF07DEF0FF0B2EF0FF01050D8A483EF8A
:101F00000FF085EF0FF0B2EF0FF0000E016E000E34
:101F1000026E000E036E000E046E4DEF10F0D890AE
:101F2000013602360336043610AE99EF0FF09BEF00
:101F30000FF09CEF0FF0018010A0A1EF0FF0A3EFC6
:101F40000FF0A7EF0FF0D8801036A9EF0FF0D89060
:101F500010360F50D8B4AFEF0FF0B1EF0FF0B2EF73
:101F60000FF00F0603AEB7EF0FF0B9EF0FF08FEFE2
:101F70000FF0000E0E6E10AEC0EF0FF0C2EF0FF0BC
:101F8000DAEF0FF010C009F07F0E0916D8B4CBEFCE
:101F90000FF0CDEF0FF0D1EF0FF0010E0E6EDAEF74
:101FA0000FF001A0D6EF0FF0D8EF0FF0DAEF0FF03F
:101FB000CDEF0FF00E50D8B4E0EF0FF0E2EF0FF0DE
:101FC0000DEF10F0010E0126000E02220322042262
:101FD00004A0EDEF0FF0EFEF0FF00DEF10F001C0E8
:101FE00009F002C00AF003C00BF004C00CF00C347E
:101FF0000C320B320A32093209C001F00AC002F079
:102000000BC003F00CC004F00F28D8B40AEF10F096
:102010000CEF10F00DEF10F00F2A0F28D8B413EFCB
:1020200010F015EF10F01DEF10F00F50D8A41BEFBB
:1020300010F01DEF10F02FEF10F0000E016E000EEB
:10204000026E000E036E000E046E0F50D8A42BEF2C
:1020500010F02DEF10F02FEF10F0000E0D6E0FA00E
:1020600034EF10F036EF10F039EF10F0038E3AEF46
:1020700010F0039ED8900F30046E0DAE42EF10F0BA
:1020800044EF10F045EF10F0048E01C001F002C0E3
:1020900002F003C003F004C004F012000450800BEF
:1020A0000D6E04500424136E03AE59EF10F05BEF75
:1020B00010F05CEF10F013801350D8B462EF10F002
:1020C00064EF10F077EF10F01328D8A46AEF10F047
:1020D0006CEF10F074EF10F0000E016E000E026E47
:1020E000000E036E000E046E038E7FEF10F0000EE4
:1020F000016E000E026E000E036E000E046E08509C
:10210000800B0D1A08500824126E07AE8AEF10F0EB
:102110008CEF10F08DEF10F012801250D8B493EFC6
:1021200010F095EF10F0A8EF10F01228D8A49BEF54
:1021300010F09DEF10F0A5EF10F0000E056E000EF0
:10214000066E000E076E000E086E078EB0EF10F0E0
:10215000000E056E000E066E000E076E000E086E75
:102160001250D8B4B6EF10F0B8EF10F0C0EF10F086
:102170001350D8A4BEEF10F0C0EF10F0CAEF10F06B
:10218000000E016E000E026E000E036E000E046E55
:1021900062EF12F007500102F3CF18F0F4CF19F0FC
:1021A00018500E6E0F6A106A116A1950146E156A73
:1021B000166A176A06500202F3CF18F0F4CF19F02E
:1021C00018500E26000E0F2210221122195014262C
:1021D000000E15221622172205500302F3CF18F025
:1021E000F4CF19F018500E26000E0F2210221122E3
:1021F00019501426000E15221622172210C011F0B5
:102200000FC010F00EC00FF00E6A05500202F3CF9F
:1022100018F0F4CF19F018500E2619500F22000EA6
:102220001022000E112206500102F3CF18F0F4CF55
:1022300019F018500E2619500F22000E1022000E11
:10224000112210C011F00FC010F00EC00FF00E6A76
:1022500005500102F3CF18F0F4CF19F018500E26F4
:1022600019500F22000E1022000E112207500202F8
:10227000F3CF18F0F4CF19F0185014261950152286
:10228000000E1622000E172206500302F3CF18F09C
:10229000F4CF19F01850142619501522000E1622EA
:1022A000000E172207500302F3CF18F0F4CF19F0F5
:1022B0001850096E19500A6E0B6A0C6A0BC00CF0AC
:1022C0000AC00BF009C00AF0096A095014260A5026
:1022D00015220B5016220C5017220EC009F00FC009
:1022E0000AF010C00BF011C00CF0190E7DEF11F0C8
:1022F000D8900C320B320A320932E82E78EF11F006
:10230000095014260A5015220B5016220C50172281
:1023100010C011F00FC010F00EC00FF00E6A125076
:1023200013C009F00A6A0926000E0A22820E092447
:10233000186EFF0E0A20196EB3EF11F0D890143604
:1023400015361636173611AEA8EF11F0AAEF11F0B8
:10235000ABEF11F01480D8900E360F3610361136D0
:102360001806D8A0190616AEB8EF11F0BAEF11F0A2
:102370009EEF11F0000E126E11AEC1EF11F0C3EF1F
:1023800011F0E7EF11F0FF0E0E14096EFF0E0F149F
:102390000A6EFF0E10140B6E7F0E11140C6E095096
:1023A0000A100B100C10D8B4D8EF11F0DAEF11F0BE
:1023B000DEEF11F0010E126EE7EF11F014A0E3EF63
:1023C00011F0E5EF11F0E7EF11F0DAEF11F0125034
:1023D000D8B4EDEF11F0EFEF11F013EF12F0010EA2
:1023E0001426000E15221622172217A0FAEF11F05C
:1023F000FCEF11F013EF12F014C009F015C00AF051
:1024000016C00BF017C00CF00C340C320B320A3231
:10241000093209C014F00AC015F00BC016F00CC048
:1024200017F0184A192A19BE1EEF12F0195008E1C8
:102430001828D8A01EEF12F020EF12F02AEF12F0A9
:10244000000E146E000E156E800E166E7F0E176E47
:1024500058EF12F019BE37EF12F0195006E11804C8
:10246000D8B035EF12F037EF12F043EF12F0000E54
:10247000146E000E156E000E166E000E176E000E16
:102480000D6E58EF12F018C013F0FF0E1416FF0E69
:1024900015167F0E1616000E171613A052EF12F027
:1024A00054EF12F055EF12F0168ED8901330176ECD
:1024B0000D50171214C001F015C002F016C003F041
:1024C00017C004F012000450800B116E0450042455
:1024D000186E03AE6EEF12F070EF12F071EF12F0A3
:1024E00018801850D8B477EF12F079EF12F08EEF11
:1024F00012F01828D8A47FEF12F081EF12F089EFC4
:1025000012F0000E016E000E026E000E036E000E41
:10251000046E038E000E046E96EF12F0000E016E34
:10252000000E026E000E036E000E046E0850800B4B
:10253000111A08500824196E07AEA1EF12F0A3EF8C
:1025400012F0A4EF12F019801950D8B4AAEF12F0CB
:10255000ACEF12F0C1EF12F01928D8A4B2EF12F0CC
:10256000B4EF12F0BCEF12F0000E056E000E066E16
:10257000000E076E000E086E078E000E086EC9EF83
:1025800012F0000E056E000E066E000E076E000EB5
:10259000086E0550061007100810D8A4D2EF12F0EC
:1025A000D4EF12F0ECEF12F0000E016E000E026E8E
:1025B000000E036E000E046E800E03127F0E0412D6
:1025C0001150041201C001F002C002F003C003F078
:1025D00004C004F02FEF14F01850D8A4F2EF12F05A
:1025E000F4EF12F0FEEF12F0000E016E000E026E1C
:1025F000000E036E000E046E2FEF14F0195018C079
:1026000009F00A6A095E000E0A5A7F0E0924126E4A
:10261000000E0A20136E01C00DF002C00EF003C0C0
:102620000FF004C010F0000E016E000E026E000EDE
:10263000036E000E046E000E146E000E156E000E7A
:10264000166E000E176E000E196E5FEF13F0195024
:10265000D8B42DEF13F02FEF13F046EF13F0D8900E
:102660000D360E360F361036D89001360236033648
:10267000043617AE3EEF13F040EF13F041EF13F0C6
:102680000180D890143615361636173605500D5C75
:1026900006500E5807500F5808501058D8A053EF46
:1026A00013F055EF13F05EEF13F0178C05500D5E2D
:1026B00006500E5A07500F5A0850105A192A190E70
:1026C000196465EF13F067EF13F027EF13F00D5067
:1026D0000E100F101010D8B470EF13F072EF13F04B
:1026E0008AEF13F014808AEF13F0D8900136023687
:1026F0000336043617AE7FEF13F081EF13F082EF4D
:1027000013F00180D8901436153616361736120697
:10271000D8A0130603AE8FEF13F091EF13F075EF0F
:1027200013F0000E196E17AE98EF13F09AEF13F036
:10273000BEEF13F0FF0E1414096EFF0E15140A6E8F
:10274000FF0E16140B6E7F0E17140C6E09500A1034
:102750000B100C10D8B4AFEF13F0B1EF13F0B5EFCE
:1027600013F0010E196EBEEF13F001A0BAEF13F0D3
:10277000BCEF13F0BEEF13F0B1EF13F01950D8B463
:10278000C4EF13F0C6EF13F0EAEF13F0010E0126C9
:10279000000E02220322042204A0D1EF13F0D3EF93
:1027A00013F0EAEF13F001C009F002C00AF003C011
:1027B0000BF004C00CF00C340C320B320A3209322C
:1027C00009C001F00AC002F00BC003F00CC004F015
:1027D000124A132A13BEF5EF13F0135008E1122822
:1027E000D8A0F5EF13F0F7EF13F002EF14F0000E9E
:1027F000136E1268000E016E000E026E000E036E64
:10280000000E046E13BE0FEF14F0135006E1120415
:10281000D8B00DEF14F00FEF14F01DEF14F0000E10
:10282000136E000E126E000E016E000E026E000E90
:10283000036E000E046E000E116E12C018F018A088
:1028400024EF14F026EF14F029EF14F0038E2AEF92
:1028500014F0039ED8901830046EE0EF12F01200CE
:102860001EC036F01FC037F020C038F021C039F04C
:1028700022C03AF023C03BF024C03CF025C03DF01C
:102880003DBE45EF14F048EF14F0010E49EF14F08F
:10289000000E346E356A34503510D8B452EF14F04F
:1028A00054EF14F064EF14F03D1E3C1E3B1E3A1E24
:1028B000391E381E371E366C000E37223822392258
:1028C0003A223B223C223D220001C5BF6AEF14F0B0
:1028D0006CEF14F06DEF14F0C693C5BF7AEF14F0EF
:1028E000C55106E1C405D8B078EF14F07AEF14F0C2
:1028F00080EF14F0000E316E010E306E84EF14F094
:10290000C4C030F0C5C031F0C2C032F0C3C033F033
:1029100034503510D8A48FEF14F091EF14F098EFE5
:1029200014F0C6A596EF14F098EF14F09BEF14F096
:102930003206D8A03306000E3F6E4F0E3E6E000EDC
:1029400001014F6F20EF15F03E06D8A03F06000EA4
:102950003E24D96E010E3F20DA6E36C001F037C03A
:1029600002F038C003F039C004F03AC005F03BC0B3
:1029700006F03CC007F03DC008F00A0E096E000EDC
:102980000A6E000E0B6E000E0C6E000E0D6E000E29
:102990000E6E000E0F6E000E106E6DEC19F001C081
:1029A00026F002C027F003C028F004C029F005C0BB
:1029B0002AF006C02BF007C02CF008C02DF026C06E
:1029C00013F028C014F003EC20F01350300FDF6E2A
:1029D0003006D8A031063206D8A0330636C001F042
:1029E00037C002F038C003F039C004F03AC005F037
:1029F0003BC006F03CC007F03DC008F00A0E096E6F
:102A0000000E0A6E000E0B6E000E0C6E000E0D6EA8
:102A1000000E0E6E000E0F6E000E106EA9EC18F078
:102A200001C036F002C037F003C038F004C039F0FE
:102A300005C03AF006C03BF007C03CF008C03DF0CE
:102A40003FBE2BEF15F03F5008E13E04D8A02BEF1E
:102A500015F02DEF15F05EEF15F0365037103810E9
:102A600039103A103B103C103D10D8A43AEF15F045
:102A70003CEF15F0A4EF14F031BE49EF15F03150E2
:102A800006E13004D8B047EF15F049EF15F0A4EF98
:102A900014F033BE54EF15F0335008E13204D8A0DF
:102AA00054EF15F056EF15F05EEF15F00001C6B3C8
:102AB0005CEF15F05EEF15F0A4EF14F03450351014
:102AC000D8A465EF15F067EF15F06FEF15F0000172
:102AD000C6A56DEF15F06FEF15F08DEF15F03E0602
:102AE000D8A03F0634503510D8A479EF15F07BEF0D
:102AF00015F081EF15F0000E2F6E2B0E2E6E85EF68
:102B000015F0000E2F6E2D0E2E6E000E3E24D96E87
:102B1000010E3F20DA6E2EC0DFFF1CC011F01DC079
:102B200012F0000E3E24136E010E3F20146E32C0D0
:102B300015F033C016F073EC1CF011C01CF012C07D
:102B40001DF01200000E946E24EC1EF0DFEC20F05D
:102B5000010E046E010E5CEC1EF0440E056E080EB4
:102B6000066EE5EC1DF0010E046E020E5CEC1EF02C
:102B7000340E056E080E066EE5EC1DF00B0E5D6E54
:102B8000260E5C6E5E0EE82EFED75C2EFCD75D2E08
:102B9000FAD7DFEC20F0010E046E010E5CEC1EF0A3
:102BA000710E056E080E066EE5EC1DF0010E046E4A
:102BB000020E5CEC1EF0540E056E080E066EE5EC7F
:102BC0001DF0150E5D6E4B0E5C6EBE0EE82EFED730
:102BD0005C2EFCD75D2EFAD700D0DFEC20F0010E82
:102BE000046E010E5CEC1EF0120E056E080E066EF1
:102BF000E5EC1DF0010E046E020E5CEC1EF0010E01
:102C0000056E080E066EE5EC1DF0000E5E6E060EFB
:102C10005D6E130E5C6EAE0EE82EFED75C2EFCD7FA
:102C20005D2EFAD7D8EC20F05E2A0E0E5E641BEF04
:102C300016F01DEF16F007EF16F0000E5E6E060E92
:102C40005D6E130E5C6EAE0EE82EFED75C2EFCD7CA
:102C50005D2EFAD7D1EC20F05E2A1D0E5E6433EFB4
:102C600016F035EF16F01FEF16F0DFEC20F0010E36
:102C7000046E010E5CEC1EF0230E056E080E066E4F
:102C8000E5EC1DF0010E046E020E5CEC1EF04A0E27
:102C900077EC20F0060E5D6E130E5C6EAE0EE82E25
:102CA000FED75C2EFCD75D2EFAD74F0E77EC20F0C6
:102CB000060E5D6E130E5C6EAE0EE82EFED75C2E19
:102CC000FCD75D2EFAD7520E77EC20F0060E5D6E23
:102CD000130E5C6EAE0EE82EFED75C2EFCD75D2E7A
:102CE000FAD7470E77EC20F0060E5D6E130E5C6E81
:102CF000AE0EE82EFED75C2EFCD75D2EFAD7450E21
:102D000077EC20F0150E5D6E4B0E5C6EBE0EE82E5D
:102D1000FED75C2EFCD75D2EFAD700D0DFEC20F07A
:102D2000C80E0001B06F000EB16F630EB26F080ED7
:102D3000B36F3D0EB46F0A0EB56F8F0EB66F400EB7
:102D4000B76F75EC1FF0010E046E010E5CEC1EF007
:102D5000C80E056E000E066EE5EC1DF0C80E0001F3
:102D6000B06F000EB16F7E0EB26F080EB36F000E23
:102D7000B56F140EB46F75EC1FF0010E046E020EE9
:102D80005CEC1EF0C80E056E000E066EE5EC1DF044
:102D9000150E5D6E4B0E5C6EBE0EE82EFED75C2EE1
:102DA000FCD75D2EFAD700D0A6EF15F000EF00F0AB
:102DB000B8C02AF0B9C02BF0BAC02CF0BBC02DF0BF
:102DC0001AC02AF01BC02BF01CC02CF01DC02DF027
:102DD000810E1E6EFF0E1F6E2AC020F02BC021F048
:102DE0002CC022F02DC023F0180EFCEF16F0D89066
:102DF0002332223221322032E82EF7EF16F0205013
:102E00001E24286E000E1F20296E29BE11EF17F018
:102E1000295009E1170E285CD8A011EF17F013EF25
:102E200017F01DEF17F01AC01AF01BC01BF01CC0E2
:102E30001CF01DC01DF0E0EF17F029BE22EF17F0C7
:102E400024EF17F094EF17F028C01EF0FF0E1F6E4E
:102E5000FF0E206E7F0E216E000E226E1E6633EF77
:102E600017F03BEF17F022342232213220321F328A
:102E70001E2E2EEF17F01FC024F020C025F021C019
:102E800026F022C027F024502A141E6E25502B1441
:102E90001F6E26502C14206E27502D14216E1E50AC
:102EA0001F1020102110D8A458EF17F05AEF17F078
:102EB0005CEF17F013EF17F02AC01EF02BC01FF0C5
:102EC0002CC020F02DC021F0200E6CEF17F0D89010
:102ED000213220321F321E32E82E67EF17F01E50CB
:102EE0001F1020102110D8B478EF17F07AEF17F0E8
:102EF00082EF17F024502A2625502B2226502C2210
:102F000027502D22241C1E6E251C1F6E261C206E91
:102F1000271C216E1E502A161F502B1620502C16CF
:102F200021502D16D8EF17F02AC01EF02BC01FF02D
:102F30002CC020F02DC021F0200EA4EF17F0D89067
:102F4000213220321F321E32E82E9FEF17F01E5022
:102F50001F1020102110D8A4B0EF17F0B2EF17F017
:102F6000BCEF17F0000E2A6E000E2B6E000E2C6EBA
:102F7000000E2D6ED8EF17F0D8902A341E6E2B3429
:102F80001F6E2C34206E2D34216E1E501F10201009
:102F90002110D8B4CEEF17F0D0EF17F0D8EF17F01C
:102FA000000E2A6E000E2B6E800E2C6EBF0E2D6E44
:102FB0002AC01AF02BC01BF02CC01CF02DC01DF035
:102FC0001200000E166E000E156E000E0F6E000E33
:102FD0000E6EEDEF17F0084A092A010E146E08C0B4
:102FE000F6FF09C0F7FF0800F550200AD8B4FBEF40
:102FF00017F0FDEF17F01AEF18F0F70E0A6EFF0E3C
:103000000B6E08C0F6FF09C0F7FF0800F5500C6E04
:103010000D6A0A500C260B500D220D5009E1050EC9
:103020000C5CD8A016EF18F018EF18F01AEF18F093
:10303000000E146E14C010F0116A10501110D8A4B4
:1030400024EF18F026EF18F0EBEF17F030EF18F040
:10305000000E0F6E010E0E6E084A092A65EF18F079
:1030600008C0F6FF09C0F7FF0800F5500A6E0B6AAA
:103070000B50000AD8B43FEF18F065EF18F00A5073
:103080002B0AD8B42CEF18F0060AD8B428EF18F0A1
:1030900065EF18F015C001F016C002F0000E046EC6
:1030A0000A0E036EAEEC20F008C0F6FF09C0F7FF71
:1030B0000800F550015E000E025A300E0124156E14
:1030C000000E0220166E2CEF18F0D00E0A6EFF0EC6
:1030D0000B6E08C0F6FF09C0F7FF0800F5500C6E34
:1030E0000D6A0A500C260B500D220D500AE10A0EF3
:1030F0000C5CD8A07EEF18F081EF18F0010E82EF83
:1031000018F0000E126E136A12501310D8A48BEF31
:1031100018F08DEF18F04AEF18F00E500F10D8A4E9
:1031200094EF18F096EF18F0A4EF18F015C00AF01D
:1031300016C00BF00A1E0B1E0A4A0B2A0AC008F022
:103140000BC009F0A8EF18F015C008F016C009F080
:103150001200000E126E10BEB2EF18F0B0EF18F0B1
:10316000C4EF18F0101E0F1E0E1E0D1E0C1E0B1E9F
:103170000A1E096C000E0A220B220C220D220E22BE
:103180000F221022010E126E08BECBEF18F0C9EF0D
:1031900018F0DDEF18F0081E071E061E051E041E9F
:1031A000031E021E016C000E0222032204220522CD
:1031B000062207220822010E121A20EE13F0070E33
:1031C000DE6AE806FDE209500A100B100C100D1023
:1031D0000E100F101010D8B4F0EF18F0F2EF18F036
:1031E00044EF19F0010E116E00EF19F0D890093676
:1031F0000A360B360C360D360E360F361036112ABF
:1032000010AE05EF19F007EF19F0F6EF18F0D890AF
:1032100013361436153616361736183619361A364A
:103220000950015C0A5002580B5003580C500458C6
:103230000D5005580E5006580F500758105008589A
:10324000D8A025EF19F027EF19F038EF19F0095041
:10325000015E0A50025A0B50035A0C50045A0D508A
:10326000055A0E50065A0F50075A1050085A13802C
:10327000D89010320F320E320D320C320B320A322D
:103280000932112E07EF19F01250D8B44AEF19F095
:103290004CEF19F05CEF19F01A1E191E181E171EBC
:1032A000161E151E141E136C000E14221522162253
:1032B0001722182219221A2213C001F014C002F09A
:1032C00015C003F016C004F017C005F018C006F0D2
:1032D00019C007F01AC008F01200000E126E08BEE6
:1032E00076EF19F074EF19F088EF19F0081E071E39
:1032F000061E051E041E031E021E016C000E022285
:10330000032204220522062207220822010E126E41
:1033100010BE8FEF19F08DEF19F09FEF19F0101E0E
:103320000F1E0E1E0D1E0C1E0B1E0A1E096C000E1B
:103330000A220B220C220D220E220F2210220950EB
:103340000A100B100C100D100E100F101010D8B426
:10335000ACEF19F0AEEF19F0F6EF19F0010E116EA7
:10336000BCEF19F0D89009360A360B360C360D36FC
:103370000E360F361036112A10AEC1EF19F0C3EF1A
:1033800019F0B2EF19F00950015C0A5002580B50C5
:1033900003580C5004580D5005580E5006580F5045
:1033A000075810500858D8A0D8EF19F0DAEF19F0E4
:1033B000EAEF19F00950015E0A50025A0B50035A05
:1033C0000C50045A0D50055A0E50065A0F50075A09
:1033D0001050085AD89010320F320E320D320C3283
:1033E0000B320A320932112EC3EF19F01250D8B441
:1033F000FCEF19F0FEEF19F00EEF1AF0081E071E91
:10340000061E051E041E031E021E016C000E022273
:1034100003220422052206220722082201C001F00D
:1034200002C002F003C003F004C004F005C005F0C0
:1034300006C006F007C007F008C008F01200033409
:1034400004340A6E0A50D8A428EF1AF02AEF1AF0B2
:1034500034EF1AF0000E016E000E026E000E036EC5
:10346000000E046EA1EF1AF001C005F002C006F0D4
:1034700003C007F004C008F0200E44EF1AF0D89003
:103480000832073206320532E82E3FEF1AF00550B7
:10349000096E038EFF0E0116FF0E0216FF0E0316B5
:1034A000000E0416960E0A5E0ABE5BEF1AF059EF84
:1034B0001AF071EF1AF00A50800A970FD8B063EF34
:1034C0001AF065EF1AF067EF1AF02AEF1AF0D890A9
:1034D00004320332023201320A3E67EF1AF089EFFA
:1034E0001AF01F0E0A6477EF1AF079EF1AF081EFE5
:1034F0001AF02AEF1AF0D890013602360336043655
:103500000A060A50D8A487EF1AF089EF1AF07BEF69
:103510001AF00950D8B48FEF1AF091EF1AF099EF22
:103520001AF0041E031E021E016C000E022203226A
:10353000042201C001F002C002F003C003F004C085
:1035400004F01200000E1A14226E000E1B14236EDB
:10355000800E1C14246E7F0E1D14256E2250231025
:1035600024102510D8A4B7EF1AF0B9EF1AF0C1EF64
:103570001AF0000E1A6E000E1B6E000E1C6E000E6E
:103580001D6E000E1E14226E000E1F14236E800E80
:103590002014246E7F0E2114256E22502310241037
:1035A0002510D8A4D6EF1AF0D8EF1AF0E0EF1AF0F1
:1035B000000E1E6E000E1F6E000E206E000E216E9D
:1035C0001DAEE5EF1AF0E7EF1AF0F0EF1AF01A6C03
:1035D0001B1ED8B01B2A1C1ED8B01C2A800E1D56DC
:1035E00021AEF5EF1AF0F7EF1AF000EF1BF01E6CAA
:1035F0001F1ED8B01F2A201ED8B0202A800E2156A8
:10360000000E1A1A000E1B1A000E1C1A800E1D1A2C
:10361000000E1E1A000E1F1A000E201A800E211A0C
:103620001E501A5C1F501B5820501C5821501D580A
:10363000D8B01DEF1BF01FEF1BF022EF1BF0D8904E
:1036400023EF1BF0D8801200BCC00BF0BDC00CF003
:10365000BEC00DF0BFC00EF001C00BF002C00CF0F8
:1036600003C00DF004C00EF00BC005F00CC006F056
:103670000DC007F00EC008F0180E44EF1BF0D890F4
:103680000832073206320532E82E3FEF1BF00550B4
:10369000096E0A6A09500A10D8A451EF1BF053EFC3
:1036A0001BF073EF1BF0D8900B34056E0C34066ED4
:1036B0000D34076E0E34086E055006100710081002
:1036C000D8A465EF1BF067EF1BF06DEF1BF0000E49
:1036D000026E020E016EA2EF1BF0000E026E030ED0
:1036E000016EA2EF1BF009280A10D8A47AEF1BF094
:1036F0007CEF1BF09EEF1BF00BC005F00CC006F03A
:103700000DC007F00EC008F0090ED8900536063639
:1037100007360836E82E85EF1BF005500610071017
:103720000810D8B496EF1BF099EF1BF0010E9AEF3A
:103730001BF0000E016E026AA2EF1BF0000E026E7B
:10374000040E016E120001C008F002C009F003C0AF
:103750000AF004C00BF00506D8A00606052806E10D
:103760000628D8A4B6EF1BF0B8EF1BF0C5EF1BF08E
:10377000000E026E000E016E0DEF1CF0084A092AC1
:103780000A4A0B2A0506D8A0060608C0D9FF09C0B8
:10379000DAFFDF50D8B4CFEF1BF0D1EF1BF0FCEF16
:1037A0001BF00AC0F6FF0BC0F7FF0800F550000938
:1037B000D8B4DDEF1BF0DFEF1BF0FCEF1BF0055082
:1037C0000610D8B4E6EF1BF0E8EF1BF0FCEF1BF09F
:1037D00008C0D9FF09C0DAFFDF50076E0AC0F6FF44
:1037E0000BC0F7FF0800F5500718D8B4FAEF1BF02C
:1037F000FCEF1BF0BEEF1BF008C0D9FF09C0DAFFD9
:10380000DF50076E0AC0F6FF0BC0F7FF0800F55047
:10381000075C016E026AD8A0020612000350041071
:10382000D8B415EF1CF017EF1CF020EF1CF003507C
:103830000410D8A41EEF1CF020EF1CF025EF1CF0A4
:103840000150E9EC20F072EF1CF020EE04F0035080
:10385000D9260450DA22DE50DE10D8B432EF1CF044
:1038600034EF1CF04FEF1CF020EE04F00350D9268B
:103870000450DA2210EE02F00350E1260450E22256
:10388000DE50E65CE650800A096EDE50800A095878
:10389000D8B04DEF1CF04FEF1CF072EF1CF020EE93
:1038A00002F00350D9260450DA22DECF05F0DDCF36
:1038B00006F003C0D9FF04C0DAFFDECF07F0DDCF8A
:1038C00008F005500724D96E06500820DA6E01C0B2
:1038D000DFFF20EE02F00350D9260450DA22DE2A60
:1038E000000EDD2212000001C6A179EF1CF07BEF73
:1038F0001CF085EF1CF013C00AF014C00BF011C0CF
:103900000CF012C00DF0C0EC1FF016BE8AEF1CF0D8
:103910008CEF1CF092EF1CF015C01AF016C01BF0D3
:1039200096EF1CF0000E1B6E000E1A6E000E196E44
:10393000000E186EA8EF1CF0000E026E200E016E35
:1039400011C003F012C004F00EEC1CF0184A192A42
:103950001A50185C1950800A176E1B50800A1758AD
:10396000D8A0B5EF1CF0B7EF1CF09CEF1CF00001E5
:10397000C6B1BDEF1CF0BFEF1CF0C9EF1CF013C0C7
:103980000AF014C00BF011C00CF012C00DF0C0EC26
:103990001FF013C001F014C002F093EC20F01A5095
:1039A0000124116E1B500220126E1200000E066ED2
:1039B00004BEDFEF1CF0DDEF1CF0E5EF1CF0036C44
:1039C000041ED8B0042A010E066E02BEECEF1CF0F5
:1039D000EAEF1CF0F2EF1CF0016C021ED8B0022AD4
:1039E000010E061A000E086E000E076E035004103A
:1039F000D8B4FDEF1CF0FFEF1CF027EF1DF0010E17
:103A0000056E07EF1DF0D89003360436052A04AE84
:103A10000CEF1DF00EEF1DF003EF1DF0D8900736F0
:103A200008360350015C04500258D8A01AEF1DF06C
:103A30001CEF1DF021EF1DF00350015E0450025AEF
:103A40000780D89004320332052E0EEF1DF0065089
:103A5000D8B42DEF1DF02FEF1DF033EF1DF0076CE4
:103A6000081ED8B0082A07C001F008C002F01200F2
:103A7000000E066E02BE41EF1DF03FEF1DF047EF56
:103A80001DF0016C021ED8B0022A010E066E04BEA3
:103A90004EEF1DF04CEF1DF052EF1DF0036C041EB5
:103AA000D8B0042A03500410D8B459EF1DF05BEFCE
:103AB0001DF07FEF1DF0010E056E63EF1DF0D89035
:103AC00003360436052A04AE68EF1DF06AEF1DF0D8
:103AD0005FEF1DF00350015C04500258D8A073EF53
:103AE0001DF075EF1DF079EF1DF00350015E0450DD
:103AF000025AD89004320332052E6AEF1DF00650A8
:103B0000D8B485EF1DF087EF1DF08BEF1DF0016C31
:103B1000021ED8B0022A01C001F002C002F0120059
:103B2000000E0114096E000E02140A6E800E0314BA
:103B30000B6E7F0E04140C6E09500A100B100C1043
:103B4000D8A4A5EF1DF0A7EF1DF0AFEF1DF0000EFC
:103B5000016E000E026E000E036E000E046E000E6B
:103B60000514096E000E06140A6E800E07140B6E03
:103B70007F0E08140C6E09500A100B100C10D8A4FC
:103B8000C4EF1DF0C6EF1DF0CEEF1DF0000E056E68
:103B9000000E066E000E076E000E086E055001182E
:103BA0000FE1065002180CE10750031809E1085014
:103BB0000418D8B4DEEF1DF0E0EF1DF0E3EF1DF0C8
:103BC000D890E4EF1DF0D8801200000E0A6E000EAF
:103BD000096E05EF1EF009500524076E0A500620F5
:103BE000086E07C0F6FF08C0F7FFF86A070EF76413
:103BF00003D00800F55005D0F6CFE1FFF7CFE2FF84
:103C0000E75077EC20F0094A0A2A09500524076E8C
:103C10000A500620086E07C0F6FF08C0F7FFF86AD2
:103C2000070EF76403D00800F55005D0F6CFE1FF8A
:103C3000F7CFE2FFE7500009D8A421EF1EF023EFF1
:103C40001EF0EBEF1DF01200000E1EEC1FF0340E04
:103C5000046EF20EE82EFED7042EFCD7030EC1EC44
:103C600020F00D0E046EFC0EE82EFED7042EFCD7BD
:103C7000030EC1EC20F01D0E046E910EE82EFED74F
:103C8000042EFCD700F0030EC1EC20F0020EC1ECB4
:103C900020F0020EC1EC20F0080EC1EC20F0000E66
:103CA000C1EC20F00C0EC1EC20F0000EC1EC20F0B5
:103CB000060EC1EC20F01200056E0504D8A463EFD7
:103CC0001EF065EF1EF076EF1EF004507F0F086EB9
:103CD00008380F0B066E08500F0B076E0650C1EC2C
:103CE00020F00750C1EC20F08EEF1EF0020E0518F8
:103CF000D8A47DEF1EF07FEF1EF08EEF1EF0045073
:103D0000BF0F086E08380F0B066E08500F0B076EBA
:103D10000650C1EC20F00750C1EC20F012004CC05E
:103D200050F04DC051F0000E0001C16F000EC06F89
:103D3000ADEF1EF04AC040F04BC041F0500E426E55
:103D4000000E436E4EC044F04FC045F079EC0AF0CF
:103D500040500001C0274150C12350C0F6FF51C060
:103D6000F7FF0800F5500009D8A4B9EF1EF0BBEF2B
:103D70001EF09AEF1EF0C0C04AF0C1C04BF0120016
:103D8000BF0E096EFF0E0A6E07C00BF008C00CF0E4
:103D900009500B260A500C220C500AE11A0E0B5C3B
:103DA000D8A0D5EF1EF0D8EF1EF0010ED9EF1EF00F
:103DB000000E0D6E0E6A0D500E10D8B4E2EF1EF01C
:103DC000E4EF1EF0EBEF1EF0200E0710076E085018
:103DD000086EEFEF1EF007C007F008C008F01200F1
:103DE00003C007F004C008F001C009F002C00AF0E7
:103DF0000750056E0850066E074A082A05C0F6FFF0
:103E000006C0F7FFF86A09C0D9FF0AC0DAFF094AFD
:103E10000A2A070EF76403D00800F55005D0F6CF44
:103E2000E1FFF7CFE2FFE750DF6EDF50D8A41BEFD2
:103E30001FF01DEF1FF0F8EF1EF01200016E01A041
:103E400024EF1FF026EF1FF029EF1FF082842AEFE6
:103E50001FF0829401A22FEF1FF031EF1FF034EF1B
:103E60001FF0828835EF1FF0829801A43AEF1FF00F
:103E70003CEF1FF03FEF1FF0828A40EF1FF0829A65
:103E800001A645EF1FF047EF1FF04AEF1FF0828CAD
:103E90004BEF1FF0829C1200010E076E200E0118DE
:103EA0000210D8B456EF1FF058EF1FF071EF1FF05B
:103EB000F70E036EFF0E046E01C005F002C006F09F
:103EC0000350052604500622065009E1050E055C44
:103ED000D8A06DEF1FF06FEF1FF071EF1FF0000E15
:103EE000076E07C001F0026A1200B40E546E000E95
:103EF000556EB0C056F0B1C057F0000E596E000EAE
:103F0000586E000E5B6E000E5A6E560E4A6E000E14
:103F10004B6EB2C04CF0B3C04DF0540E4E6E000E5E
:103F20004F6E8FEC1EF058500001B025D96E5950DD
:103F3000B121DA6E000EDF6E1200000E1E1A000EA6
:103F40001F1A000E201A800E211A1AC001F01BC081
:103F500002F01CC003F01DC004F01EC005F01FC01D
:103F600006F020C007F021C008F0EEEC0DF001C013
:103F70001AF002C01BF003C01CF004C01DF01200B8
:103F8000000E106E000E0F6ED1EF1FF00EC001F08C
:103F9000026A0CC003F00DC004F00EEC1CF00F4AD6
:103FA000102A0F500A24D96E10500B20DA6EDF5001
:103FB0000E6E0E50D8A4DFEF1FF0E1EF1FF0C6EF3A
:103FC0001FF01200CC0EF66E410EF76E000EF86E6A
:103FD00000EEDCF010EE06F00900F5CFEEFFE55044
:103FE000E150FAE101EE00F0500EEE6AE806FDE164
:103FF00000EEB8F0240EEE6AE806FDE1000EF86E61
:104000000001A2EF15F014BE10EF20F0145006E1ED
:104010001304D8B00EEF20F010EF20F01EEF20F0C8
:1040200013C015F014C016F0151E161E154A162AD8
:1040300015C013F016C014F022EF20F013C013F0D7
:1040400014C014F01200BF0E036EFF0E046E01C008
:1040500005F002C006F00350052604500622065063
:104060000AE11A0E055CD8A038EF20F03BEF20F0F3
:10407000010E3CEF20F0000E016E026A12000150AA
:10408000021003100410D8B448EF20F04AEF20F0DB
:1040900052EF20F0000E011A000E021A000E031A51
:1040A000800E041A01C001F002C002F003C003F048
:1040B00004C004F01200D00E036EFF0E046E01C0A7
:1040C00005F002C006F003500526045006220650F3
:1040D0000AE10A0E055CD8A070EF20F073EF20F023
:1040E000010E74EF20F0000E016E026A1200046EE1
:1040F00004500F0B026E0450F00B036E82800338E5
:104100000F0B1EEC1FF082821A0EE82EFED700D095
:10411000829202501EEC1FF082821A0EE82EFED709
:1041200000D08292120001C003F002C004F09BEFA5
:1041300020F0014A022A01C0D9FF02C0DAFFDF5095
:10414000D8A4A5EF20F0A7EF20F099EF20F00350BE
:10415000015C016E04500258026E1200015003020D
:10416000F3CF05F0F4CF06F001500402F350062619
:1041700002500302F350062605C001F006C002F00B
:104180001200036E829003501EEC1FF082820B0E11
:10419000026E620EE82EFED7022EFCD700D082926D
:1041A0001200010EC1EC20F00C0EC1EC20F0120048
:1041B000010EC1EC20F0080EC1EC20F01200000E40
:1041C000C1EC20F0010EC1EC20F012003D0A8F403E
:0441D00014001200C5
:020000040020DA
:08000000FFFFFFFFFFFFFFFF00
:020000040030CA
:0E000000000C1E1EFF8381FF0FC00FE00F409B
:00000001FF
